:020000040800F2
:1000000068060020290200083102000833020008B7
:10001000350200083702000839020008000000001D
:100020000000000000000000000000003B0200088B
:100030003D020008000000003F02000849030008DC
:10004000430200084302000843020008430200087C
:10005000430200084302000843020008430200086C
:10006000430200084302000843020008430200085C
:10007000430200084302000843020008430200084C
:10008000430200084302000843020008430200083C
:10009000430200084302000843020008430200082C
:1000A000430200084302000843020008430200081C
:1000B00043020008D9030008430200084302000875
:1000C00043020008430200084302000843020008FC
:1000D00043020008430200084302000843020008EC
:1000E00043020008430200084302000843020008DC
:1000F00043020008430200084302000843020008CC
:1001000043020008430200084302000843020008BB
:1001100043020008430200084302000843020008AB
:10012000430200084302000843020008430200089B
:10013000430200084302000843020008430200088B
:10014000430200084302000843020008430200087B
:10015000430200084302000843020008430200086B
:10016000430200084302000843020008430200085B
:100170004302000843020008430200080000000098
:10018000430200084302000800F002F800F03CF8C7
:100190000AA090E8000C82448344AAF10107DA45E2
:1001A00001D100F031F8AFF2090EBAE80F0013F0F8
:1001B000010F18BFFB1A43F001031847B4020000F7
:1001C000D4020000103A24BF78C878C1FAD8520788
:1001D00024BF30C830C144BF04680C6070470000C1
:1001E0000023002400250026103A28BF78C1FBD840
:1001F000520728BF30C148BF0B6070471FB500F0E1
:1002000031F91FBD10B510BD00F031F81146FFF7F0
:10021000F5FF00F00FF900F04FF803B4FFF7F2FF1D
:1002200003BC00F057F80000094880470948004720
:10023000FEE7FEE7FEE7FEE7FEE7FEE7FEE7FEE796
:10024000FEE7FEE704480549054A064B70470000F3
:10025000910300088901000868000020680600205A
:10026000680200206802002070477047704775469A
:1002700000F02CF8AE4605006946534620F0070012
:10028000854618B020B5FFF7DDFFBDE820404FF0F0
:1002900000064FF000074FF000084FF0000B21F070
:1002A0000701AC46ACE8C009ACE8C009ACE8C0093D
:1002B000ACE8C0098D46704710B50446AFF3008026
:1002C0002046BDE81040FFF7A8BF00000048704777
:1002D0000400002001491820ABBEFEE72600020002
:1002E000704700001648C06C40F002001449C86412
:1002F0001448006800F480601249086008460068ED
:1003000060F400600860081D006820F02000091DEE
:100310000860081D006800F48060091D0860084638
:10032000006840F400600860081D006800F4806008
:10033000091D08600846006800F400600860704706
:1003400000100240000400480448006820B103483F
:100350000068401E0149086070470000000000204E
:100360004FF0E020406900F07F404FF0E02148610D
:10037000064848610846806900F07F408861084669
:10038000006940F007000861704700007F380100F5
:100390000E48006840F470000C4908600C48006882
:1003A00040F001000A4908600020886008460068A3
:1003B00008490840064908608814C8600846006873
:1003C00020F48020086000208861704788ED00E0FC
:1003D00000100240FFFFF6EA014800687047000085
:1003E000100400401048806D40F002000E498865FE
:1003F0001D2000280DDB00BF00BF00F01F020121FF
:1004000091404209920002F1E022C2F8001100BFBF
:1004100000BF00BF41F63F700449086042F210700F
:1004200003490860704700000010024028040040A3
:100430002C2C0140FFF756FFFFF792FFFFF7D2FF8A
:100440000748006840F001000549086004480C387E
:10045000006840F0010002490C39086000BFFEE767
:100460000C0400404FF04070E1EE100A70470000AD
:10047000900400080000002004000000C4010008EF
:10048000940400080400002064060000E001000855
:040490000000000068
:0400000508000229C4
:00000001FF
