:020000040800F2
:1000000068060020290200083102000833020008B7
:10001000350200083702000839020008000000001D
:100020000000000000000000000000003B0200088B
:100030003D020008000000003F0200081104000813
:10004000430200084302000843020008430200087C
:10005000430200084302000843020008430200086C
:10006000430200084302000843020008430200085C
:10007000430200084302000843020008430200084C
:10008000430200084302000843020008430200083C
:10009000430200084302000843020008430200082C
:1000A000430200084302000843020008430200081C
:1000B000430200084302000843020008430200080C
:1000C00043020008430200084302000843020008FC
:1000D00043020008430200084302000843020008EC
:1000E00043020008430200084302000843020008DC
:1000F00043020008430200084302000843020008CC
:1001000043020008430200084302000843020008BB
:1001100043020008430200084302000843020008AB
:10012000430200084302000843020008430200089B
:10013000430200084302000843020008430200088B
:10014000430200084302000843020008430200087B
:10015000430200084302000843020008430200086B
:10016000430200084302000843020008430200085B
:100170004302000843020008430200080000000098
:10018000430200084302000800F002F800F03CF8C7
:100190000AA090E8000C82448344AAF10107DA45E2
:1001A00001D100F031F8AFF2090EBAE80F0013F0F8
:1001B000010F18BFFB1A43F0010318475803000052
:1001C00078030000103A24BF78C878C1FAD85207E3
:1001D00024BF30C830C144BF04680C6070470000C1
:1001E0000023002400250026103A28BF78C1FBD840
:1001F000520728BF30C148BF0B6070471FB500F0E1
:1002000083F91FBD10B510BD00F031F81146FFF79E
:10021000F5FF00F05BF900F04FF803B4FFF7F2FFD1
:1002200003BC00F057F80000094880470948004720
:10023000FEE7FEE7FEE7FEE7FEE7FEE7FEE7FEE796
:10024000FEE7FEE704480549054A064B70470000F3
:100250005904000889010008680000206806002091
:10026000680200206802002070477047704775469A
:1002700000F02CF8AE4605006946534620F0070012
:10028000854618B020B5FFF7DDFFBDE820404FF0F0
:1002900000064FF000074FF000084FF0000B21F070
:1002A0000701AC46ACE8C009ACE8C009ACE8C0093D
:1002B000ACE8C0098D46704710B50446AFF3008026
:1002C0002046BDE81040FFF7A8BF00000048704777
:1002D0000400002001491820ABBEFEE72600020002
:1002E000704700001648C06C40F002001449C86412
:1002F0001448006800F480601249086008460068ED
:1003000060F400600860081D006820F02000091DEE
:100310000860081D006800F48060091D0860084638
:10032000006840F400600860081D006800F4806008
:10033000091D08600846006800F400600860704706
:1003400000100240000400482F48006820F0070019
:100350002D4908600846006840F0040008602B48FA
:10036000006840F480702949086000BF2748006891
:1003700000F480600028F9D02448806820F0F00064
:1003800022498860084680688860084680688860DE
:100390000846806888600846C06800F07000C86041
:1003A0000846C06820F4FE40C8600846C06840F4B3
:1003B0002060C8600846C06840F00200C860084677
:1003C000C06820F0C060C8600846C06840F0807017
:1003D000C8600846006840F08070086000BF0B48A5
:1003E000006800F000700028F9D00848806840F0EC
:1003F00003000649886000BF0448806800F00C00D4
:100400000028F9D070470000002002400010024090
:100410000448006820B103480068401E0149086094
:1004200070470000000000204FF0E020406900F01D
:100430007F404FF0E02148610648486108468069E6
:1004400000F07F4088610846006940F007000861BD
:1004500070470000D03801000E48006840F470007A
:100460000C4908600C48006840F001000A49086027
:10047000002088600846006808490840064908606E
:100480008814C8600846006820F4802008600020B6
:100490008861704788ED00E000100240FFFFF6EA37
:1004A0004FF0E021896901F07F414FF0E022916136
:1004B000044991610449086000BF034909680029A3
:1004C000FBD17047D038010000000020FFF73CFF4F
:1004D000FFF708FFFFF7A8FF13E00A48006840F0A5
:1004E0002000084908604FF44870FFF7D9FF05481D
:1004F000006840F40010034908604FF44870FFF7AB
:10050000CFFFEAE7180400484FF04070E1EE100A10
:1005100070470000340500080000002004000000BF
:10052000C40100083805000804000020640600002B
:08053000E001000800000000DA
:0400000508000229C4
:00000001FF
