:020000040800F2
:10000000600600200D020008150200081702000813
:10001000190200081B0200081D0200080000000071
:100020000000000000000000000000001F020008A7
:100030002102000800000000230200082502000839
:1000400027020008270200082702000827020008EC
:1000500027020008270200082702000827020008DC
:1000600027020008270200082702000827020008CC
:1000700027020008270200082702000827020008BC
:1000800027020008270200082702000827020008AC
:10009000270200082702000827020008270200089C
:1000A000270200082702000827020008270200088C
:1000B000270200082702000827020008270200087C
:1000C000270200082702000827020008270200086C
:1000D000270200082702000827020008270200085C
:1000E000270200082702000827020008270200084C
:1000F000270200082702000827020008270200083C
:10010000270200082702000827020008270200082B
:10011000270200082702000827020008270200081B
:10012000270200082702000827020008270200080B
:1001300027020008270200082702000827020008FB
:1001400027020008270200082702000827020008EB
:1001500027020008270200082702000827020008DB
:1001600027020008270200082702000827020008CB
:1001700027020008270200082702000800000000EC
:10018000270200082702000800F002F800F02EF80D
:100190000AA090E8000C82448344AAF10107DA45E2
:1001A00001D100F023F8AFF2090EBAE80F0013F006
:1001B000010F18BFFB1A43F001031847E8010000C4
:1001C000F80100000023002400250026103A28BF73
:1001D00078C1FBD8520728BF30C148BF0B607047B9
:1001E0001FB500F0D9F81FBD10B510BD00F031F8F3
:1001F0001146FFF7F5FF00F0BDF800F04FF803B42B
:10020000FFF7F2FF03BC00F057F8000009488047F1
:1002100009480047FEE7FEE7FEE7FEE7FEE7FEE7E8
:10022000FEE7FEE7FEE7FEE704480549054A064B00
:10023000704700002D0300088901000860000020BD
:1002400060060020600200206002002070477047B6
:100250007047754600F02CF8AE46050069465346D7
:1002600020F00700854618B020B5FFF7DDFFBDE898
:1002700020404FF000064FF000074FF000084FF00D
:10028000000B21F00701AC46ACE8C009ACE8C0099E
:10029000ACE8C009ACE8C0098D46704710B504460B
:1002A000AFF300802046BDE81040FFF7A8BF000074
:1002B000004870470000002001491820ABBEFEE74F
:1002C00026000200704700001648C06C40F0020093
:1002D0001449C8641448006800F48060124908603A
:1002E0000846006860F400600860081D006820F09F
:1002F0002000091D0860081D006800F48060091DC9
:1003000008600846006840F400600860081D006846
:1003100000F48060091D08600846006800F4006071
:100320000860704700100240000400480E48006852
:1003300040F470000C4908600C48006840F001006F
:100340000A4908600020886008460068084908409B
:10035000064908608814C8600846006820F48020B8
:10036000086000208861704788ED00E000100240BE
:10037000FFFFF6EAFFF7A8FF0AE00648006840F032
:100380002000044908600846006840F40010086036
:10039000F3E70000180400484FF04070E1EE100A47
:1003A00070470000B4030008000000206006000051
:0403B000C40100087C
:040000050800020DE0
:00000001FF
